{
  "address": "0x9EB454FbCB7b1F42d4E23Db1818C953b0d4a1bca",
  "abi": [
    {
      "inputs": [
        {
          "internalType": "uint256",
          "name": "_entranceFee",
          "type": "uint256"
        },
        {
          "internalType": "address",
          "name": "_vrfCoordinatorAddress",
          "type": "address"
        },
        {
          "internalType": "uint64",
          "name": "_subscriptionId",
          "type": "uint64"
        },
        {
          "internalType": "bytes32",
          "name": "_keyHash",
          "type": "bytes32"
        },
        {
          "internalType": "uint32",
          "name": "_callbackGasLimit",
          "type": "uint32"
        },
        {
          "internalType": "uint256",
          "name": "_interval",
          "type": "uint256"
        }
      ],
      "stateMutability": "nonpayable",
      "type": "constructor"
    },
    {
      "inputs": [
        {
          "internalType": "address",
          "name": "have",
          "type": "address"
        },
        {
          "internalType": "address",
          "name": "want",
          "type": "address"
        }
      ],
      "name": "OnlyCoordinatorCanFulfill",
      "type": "error"
    },
    {
      "inputs": [
        {
          "internalType": "uint256",
          "name": "currentBalance",
          "type": "uint256"
        },
        {
          "internalType": "uint256",
          "name": "numPlayers",
          "type": "uint256"
        },
        {
          "internalType": "uint256",
          "name": "sweepstakeState",
          "type": "uint256"
        }
      ],
      "name": "SweepStake__upKeepNotNeeded",
      "type": "error"
    },
    {
      "inputs": [
        {
          "internalType": "uint256",
          "name": "_amount",
          "type": "uint256"
        }
      ],
      "name": "Sweepstake__not_enough_entrance_fee",
      "type": "error"
    },
    {
      "inputs": [],
      "name": "Sweepstake__state__notOpen",
      "type": "error"
    },
    {
      "inputs": [],
      "name": "Sweepstake__transactionFailed",
      "type": "error"
    },
    {
      "anonymous": false,
      "inputs": [
        {
          "indexed": true,
          "internalType": "uint256",
          "name": "requestId",
          "type": "uint256"
        }
      ],
      "name": "SweepStake__requestedSweepstakeWinner",
      "type": "event"
    },
    {
      "anonymous": false,
      "inputs": [
        {
          "indexed": true,
          "internalType": "address",
          "name": "entrant",
          "type": "address"
        }
      ],
      "name": "SweepStake__sweepStatkeEnter",
      "type": "event"
    },
    {
      "anonymous": false,
      "inputs": [
        {
          "indexed": true,
          "internalType": "address",
          "name": "winner",
          "type": "address"
        }
      ],
      "name": "SweepStake__winnerPicked",
      "type": "event"
    },
    {
      "stateMutability": "payable",
      "type": "fallback"
    },
    {
      "inputs": [
        {
          "internalType": "bytes",
          "name": "",
          "type": "bytes"
        }
      ],
      "name": "checkUpkeep",
      "outputs": [
        {
          "internalType": "bool",
          "name": "upkeepNeeded",
          "type": "bool"
        },
        {
          "internalType": "bytes",
          "name": "",
          "type": "bytes"
        }
      ],
      "stateMutability": "view",
      "type": "function"
    },
    {
      "inputs": [],
      "name": "enterSweepstake",
      "outputs": [],
      "stateMutability": "payable",
      "type": "function"
    },
    {
      "inputs": [],
      "name": "getEntranceFee",
      "outputs": [
        {
          "internalType": "uint256",
          "name": "_entranceFee",
          "type": "uint256"
        }
      ],
      "stateMutability": "view",
      "type": "function"
    },
    {
      "inputs": [
        {
          "internalType": "uint256",
          "name": "index",
          "type": "uint256"
        }
      ],
      "name": "getEntrant",
      "outputs": [
        {
          "internalType": "address",
          "name": "_entrantAddress",
          "type": "address"
        }
      ],
      "stateMutability": "view",
      "type": "function"
    },
    {
      "inputs": [],
      "name": "getLatestWinner",
      "outputs": [
        {
          "internalType": "address",
          "name": "_winner",
          "type": "address"
        }
      ],
      "stateMutability": "view",
      "type": "function"
    },
    {
      "inputs": [],
      "name": "getLatestWinnerAmount",
      "outputs": [
        {
          "internalType": "uint256",
          "name": "_amount",
          "type": "uint256"
        }
      ],
      "stateMutability": "view",
      "type": "function"
    },
    {
      "inputs": [],
      "name": "getLatestWinnerTimeStamp",
      "outputs": [
        {
          "internalType": "uint256",
          "name": "_timestamp",
          "type": "uint256"
        }
      ],
      "stateMutability": "view",
      "type": "function"
    },
    {
      "inputs": [],
      "name": "getNumWords",
      "outputs": [
        {
          "internalType": "uint256",
          "name": "_numWords",
          "type": "uint256"
        }
      ],
      "stateMutability": "pure",
      "type": "function"
    },
    {
      "inputs": [],
      "name": "getState",
      "outputs": [
        {
          "internalType": "enum Sweepstake.SweepStake_state",
          "name": "_state",
          "type": "uint8"
        }
      ],
      "stateMutability": "view",
      "type": "function"
    },
    {
      "inputs": [
        {
          "internalType": "bytes",
          "name": "",
          "type": "bytes"
        }
      ],
      "name": "performUpkeep",
      "outputs": [],
      "stateMutability": "nonpayable",
      "type": "function"
    },
    {
      "inputs": [
        {
          "internalType": "uint256",
          "name": "requestId",
          "type": "uint256"
        },
        {
          "internalType": "uint256[]",
          "name": "randomWords",
          "type": "uint256[]"
        }
      ],
      "name": "rawFulfillRandomWords",
      "outputs": [],
      "stateMutability": "nonpayable",
      "type": "function"
    },
    {
      "stateMutability": "payable",
      "type": "receive"
    }
  ],
  "transactionHash": "0xddf7aba6b3fda601f4ea5253dc5243af31e08f0b910bf75a5022f52537207dff",
  "args": [
    "100000000000000000",
    "0x6168499c0cFfCaCD319c818142124B7A15E857ab",
    "588",
    "0xd89b2bf150e3b9e13446986e571fb9cab24b13cea0a43ea20a6049a85cc807cc",
    "500000",
    "30"
  ],
  "numDeployments": 1,
  "solcInputHash": "00fc7c2528a483bad5260028dbf18804",
  "bytecode": "0x6101606040523480156200001257600080fd5b50604051620017de380380620017de833981810160405281019062000038919062000294565b848073ffffffffffffffffffffffffffffffffffffffff1660808173ffffffffffffffffffffffffffffffffffffffff1681525050508560a081815250508367ffffffffffffffff166101008167ffffffffffffffff16815250508261012081815250508060c081815250506000600160006101000a81548160ff02191690836001811115620000cd57620000cc62000330565b5b02179055508163ffffffff166101408163ffffffff1681525050426003819055508473ffffffffffffffffffffffffffffffffffffffff1660e08173ffffffffffffffffffffffffffffffffffffffff16815250505050505050506200035f565b600080fd5b6000819050919050565b620001488162000133565b81146200015457600080fd5b50565b60008151905062000168816200013d565b92915050565b600073ffffffffffffffffffffffffffffffffffffffff82169050919050565b60006200019b826200016e565b9050919050565b620001ad816200018e565b8114620001b957600080fd5b50565b600081519050620001cd81620001a2565b92915050565b600067ffffffffffffffff82169050919050565b620001f281620001d3565b8114620001fe57600080fd5b50565b6000815190506200021281620001e7565b92915050565b6000819050919050565b6200022d8162000218565b81146200023957600080fd5b50565b6000815190506200024d8162000222565b92915050565b600063ffffffff82169050919050565b6200026e8162000253565b81146200027a57600080fd5b50565b6000815190506200028e8162000263565b92915050565b60008060008060008060c08789031215620002b457620002b36200012e565b5b6000620002c489828a0162000157565b9650506020620002d789828a01620001bc565b9550506040620002ea89828a0162000201565b9450506060620002fd89828a016200023c565b93505060806200031089828a016200027d565b92505060a06200032389828a0162000157565b9150509295509295509295565b7f4e487b7100000000000000000000000000000000000000000000000000000000600052602160045260246000fd5b60805160a05160c05160e051610100516101205161014051611416620003c860003960006105760152600061053201526000610553015260006104f6015260006108420152600081816102cd015261067501526000818161030a015261035e01526114166000f3fe6080604052600436106100a05760003560e01c80634585e33b116100645780634585e33b146101905780634fdd3b64146101b957806353a2c19a146101e45780635e1051181461020f5780636e04ff0d14610219578063c933295414610257576100a7565b806304763ce0146100a957806309bc33a7146100e65780631865c57d146101115780631fe543e31461013c57806328a318e014610165576100a7565b366100a757005b005b3480156100b557600080fd5b506100d060048036038101906100cb9190610bd3565b610282565b6040516100dd9190610c41565b60405180910390f35b3480156100f257600080fd5b506100fb6102c9565b6040516101089190610c6b565b60405180910390f35b34801561011d57600080fd5b506101266102f1565b6040516101339190610cfd565b60405180910390f35b34801561014857600080fd5b50610163600480360381019061015e9190610e71565b610308565b005b34801561017157600080fd5b5061017a6103c8565b6040516101879190610c6b565b60405180910390f35b34801561019c57600080fd5b506101b760048036038101906101b29190610f28565b6103d2565b005b3480156101c557600080fd5b506101ce61063e565b6040516101db9190610c41565b60405180910390f35b3480156101f057600080fd5b506101f9610666565b6040516102069190610c6b565b60405180910390f35b610217610673565b005b34801561022557600080fd5b50610240600480360381019061023b919061102a565b6107ed565b60405161024e929190611116565b60405180910390f35b34801561026357600080fd5b5061026c6108d4565b6040516102799190610c6b565b60405180910390f35b600080828154811061029757610296611146565b5b9060005260206000200160009054906101000a900473ffffffffffffffffffffffffffffffffffffffff169050919050565b60007f0000000000000000000000000000000000000000000000000000000000000000905090565b6000600160009054906101000a900460ff16905090565b7f000000000000000000000000000000000000000000000000000000000000000073ffffffffffffffffffffffffffffffffffffffff163373ffffffffffffffffffffffffffffffffffffffff16146103ba57337f00000000000000000000000000000000000000000000000000000000000000006040517f1cf993f40000000000000000000000000000000000000000000000000000000081526004016103b1929190611175565b60405180910390fd5b6103c482826108de565b5050565b6000600354905090565b60006103ec604051806020016040528060008152506107ed565b5090508061045b5747600080549050600160009054906101000a900460ff16600181111561041d5761041c610c86565b5b6040517ffff05ca20000000000000000000000000000000000000000000000000000000081526004016104529392919061119e565b60405180910390fd5b6000600181111561046f5761046e610c86565b5b600160009054906101000a900460ff16600181111561049157610490610c86565b5b146104c8576040517ff3a2a6c400000000000000000000000000000000000000000000000000000000815260040160405180910390fd5b60018060006101000a81548160ff021916908360018111156104ed576104ec610c86565b5b021790555060007f000000000000000000000000000000000000000000000000000000000000000073ffffffffffffffffffffffffffffffffffffffff16635d3b1d307f00000000000000000000000000000000000000000000000000000000000000007f000000000000000000000000000000000000000000000000000000000000000060037f000000000000000000000000000000000000000000000000000000000000000060016040518663ffffffff1660e01b81526004016105b7959493929190611288565b602060405180830381600087803b1580156105d157600080fd5b505af11580156105e5573d6000803e3d6000fd5b505050506040513d601f19601f8201168201806040525081019061060991906112f0565b9050807fe5b1701f4146d8a6997b37a0bfcc2e7d05b73a784aaea25c5d19f07d58f743e660405160405180910390a250505050565b600060018054906101000a900473ffffffffffffffffffffffffffffffffffffffff16905090565b6000600161ffff16905090565b7f00000000000000000000000000000000000000000000000000000000000000003410156106d857346040517f097774340000000000000000000000000000000000000000000000000000000081526004016106cf9190610c6b565b60405180910390fd5b600060018111156106ec576106eb610c86565b5b600160009054906101000a900460ff16600181111561070e5761070d610c86565b5b14610745576040517ff3a2a6c400000000000000000000000000000000000000000000000000000000815260040160405180910390fd5b6000339080600181540180825580915050600190039060005260206000200160009091909190916101000a81548173ffffffffffffffffffffffffffffffffffffffff021916908373ffffffffffffffffffffffffffffffffffffffff1602179055503373ffffffffffffffffffffffffffffffffffffffff167f84ba1970ba3572c1b45f55ed2d3d397df8454e7fd663c3b3eb07f10dd500d6d360405160405180910390a2565b60006060600080600181111561080657610805610c86565b5b600160009054906101000a900460ff16600181111561082857610827610c86565b5b1490506000806000805490501190506000804711905060007f00000000000000000000000000000000000000000000000000000000000000006003544261086f919061134c565b11905083801561087c5750825b80156108855750815b801561088e5750805b9550856040518060400160405280600381526020017f30783000000000000000000000000000000000000000000000000000000000008152509550955050505050915091565b6000600254905090565b60008080549050826000815181106108f9576108f8611146565b5b602002602001015161090b91906113af565b9050600080828154811061092257610921611146565b5b9060005260206000200160009054906101000a900473ffffffffffffffffffffffffffffffffffffffff169050806001806101000a81548173ffffffffffffffffffffffffffffffffffffffff021916908373ffffffffffffffffffffffffffffffffffffffff160217905550600067ffffffffffffffff8111156109aa576109a9610d2e565b5b6040519080825280602002602001820160405280156109d85781602001602082028036833780820191505090505b50600090805190602001906109ee929190610ae2565b506000600160006101000a81548160ff02191690836001811115610a1557610a14610c86565b5b0217905550476002819055504260038190555060008173ffffffffffffffffffffffffffffffffffffffff166108fc479081150290604051600060405180830381858888f19350505050905080610a98576040517f278512dd00000000000000000000000000000000000000000000000000000000815260040160405180910390fd5b8173ffffffffffffffffffffffffffffffffffffffff167f74ad9d1fbddec9367274c01a0e99b01d3e96a996bf407ca2d459e6d490d4112460405160405180910390a25050505050565b828054828255906000526020600020908101928215610b5b579160200282015b82811115610b5a5782518260006101000a81548173ffffffffffffffffffffffffffffffffffffffff021916908373ffffffffffffffffffffffffffffffffffffffff16021790555091602001919060010190610b02565b5b509050610b689190610b6c565b5090565b5b80821115610b85576000816000905550600101610b6d565b5090565b6000604051905090565b600080fd5b600080fd5b6000819050919050565b610bb081610b9d565b8114610bbb57600080fd5b50565b600081359050610bcd81610ba7565b92915050565b600060208284031215610be957610be8610b93565b5b6000610bf784828501610bbe565b91505092915050565b600073ffffffffffffffffffffffffffffffffffffffff82169050919050565b6000610c2b82610c00565b9050919050565b610c3b81610c20565b82525050565b6000602082019050610c566000830184610c32565b92915050565b610c6581610b9d565b82525050565b6000602082019050610c806000830184610c5c565b92915050565b7f4e487b7100000000000000000000000000000000000000000000000000000000600052602160045260246000fd5b60028110610cc657610cc5610c86565b5b50565b6000819050610cd782610cb5565b919050565b6000610ce782610cc9565b9050919050565b610cf781610cdc565b82525050565b6000602082019050610d126000830184610cee565b92915050565b600080fd5b6000601f19601f8301169050919050565b7f4e487b7100000000000000000000000000000000000000000000000000000000600052604160045260246000fd5b610d6682610d1d565b810181811067ffffffffffffffff82111715610d8557610d84610d2e565b5b80604052505050565b6000610d98610b89565b9050610da48282610d5d565b919050565b600067ffffffffffffffff821115610dc457610dc3610d2e565b5b602082029050602081019050919050565b600080fd5b6000610ded610de884610da9565b610d8e565b90508083825260208201905060208402830185811115610e1057610e0f610dd5565b5b835b81811015610e395780610e258882610bbe565b845260208401935050602081019050610e12565b5050509392505050565b600082601f830112610e5857610e57610d18565b5b8135610e68848260208601610dda565b91505092915050565b60008060408385031215610e8857610e87610b93565b5b6000610e9685828601610bbe565b925050602083013567ffffffffffffffff811115610eb757610eb6610b98565b5b610ec385828601610e43565b9150509250929050565b600080fd5b60008083601f840112610ee857610ee7610d18565b5b8235905067ffffffffffffffff811115610f0557610f04610ecd565b5b602083019150836001820283011115610f2157610f20610dd5565b5b9250929050565b60008060208385031215610f3f57610f3e610b93565b5b600083013567ffffffffffffffff811115610f5d57610f5c610b98565b5b610f6985828601610ed2565b92509250509250929050565b600080fd5b600067ffffffffffffffff821115610f9557610f94610d2e565b5b610f9e82610d1d565b9050602081019050919050565b82818337600083830152505050565b6000610fcd610fc884610f7a565b610d8e565b905082815260208101848484011115610fe957610fe8610f75565b5b610ff4848285610fab565b509392505050565b600082601f83011261101157611010610d18565b5b8135611021848260208601610fba565b91505092915050565b6000602082840312156110405761103f610b93565b5b600082013567ffffffffffffffff81111561105e5761105d610b98565b5b61106a84828501610ffc565b91505092915050565b60008115159050919050565b61108881611073565b82525050565b600081519050919050565b600082825260208201905092915050565b60005b838110156110c85780820151818401526020810190506110ad565b838111156110d7576000848401525b50505050565b60006110e88261108e565b6110f28185611099565b93506111028185602086016110aa565b61110b81610d1d565b840191505092915050565b600060408201905061112b600083018561107f565b818103602083015261113d81846110dd565b90509392505050565b7f4e487b7100000000000000000000000000000000000000000000000000000000600052603260045260246000fd5b600060408201905061118a6000830185610c32565b6111976020830184610c32565b9392505050565b60006060820190506111b36000830186610c5c565b6111c06020830185610c5c565b6111cd6040830184610c5c565b949350505050565b6000819050919050565b6111e8816111d5565b82525050565b600067ffffffffffffffff82169050919050565b61120b816111ee565b82525050565b600061ffff82169050919050565b61122881611211565b82525050565b600063ffffffff82169050919050565b6112478161122e565b82525050565b6000819050919050565b600061127261126d61126884611211565b61124d565b61122e565b9050919050565b61128281611257565b82525050565b600060a08201905061129d60008301886111df565b6112aa6020830187611202565b6112b7604083018661121f565b6112c4606083018561123e565b6112d16080830184611279565b9695505050505050565b6000815190506112ea81610ba7565b92915050565b60006020828403121561130657611305610b93565b5b6000611314848285016112db565b91505092915050565b7f4e487b7100000000000000000000000000000000000000000000000000000000600052601160045260246000fd5b600061135782610b9d565b915061136283610b9d565b9250828210156113755761137461131d565b5b828203905092915050565b7f4e487b7100000000000000000000000000000000000000000000000000000000600052601260045260246000fd5b60006113ba82610b9d565b91506113c583610b9d565b9250826113d5576113d4611380565b5b82820690509291505056fea2646970667358221220f646e4760a64b4846c66612c8f486179ef350acbda98da7cbf5b0fb5ee24f90164736f6c63430008090033",
  "devdoc": {
    "kind": "dev",
    "methods": {},
    "version": 1
  },
  "userdoc": {
    "kind": "user",
    "methods": {},
    "version": 1
  },
  "storageLayout": {
    "storage": [
      {
        "astId": 239,
        "contract": "contracts/Sweepstake.sol:Sweepstake",
        "label": "s_entrants",
        "offset": 0,
        "slot": "0",
        "type": "t_array(t_address_payable)dyn_storage"
      },
      {
        "astId": 242,
        "contract": "contracts/Sweepstake.sol:Sweepstake",
        "label": "s_state",
        "offset": 0,
        "slot": "1",
        "type": "t_enum(SweepStake_state)232"
      },
      {
        "astId": 259,
        "contract": "contracts/Sweepstake.sol:Sweepstake",
        "label": "s_latestWinner",
        "offset": 1,
        "slot": "1",
        "type": "t_address"
      },
      {
        "astId": 261,
        "contract": "contracts/Sweepstake.sol:Sweepstake",
        "label": "s_latestWinnerAmount",
        "offset": 0,
        "slot": "2",
        "type": "t_uint256"
      },
      {
        "astId": 263,
        "contract": "contracts/Sweepstake.sol:Sweepstake",
        "label": "s_latestWinnerTimestamp",
        "offset": 0,
        "slot": "3",
        "type": "t_uint256"
      }
    ],
    "types": {
      "t_address": {
        "encoding": "inplace",
        "label": "address",
        "numberOfBytes": "20"
      },
      "t_address_payable": {
        "encoding": "inplace",
        "label": "address payable",
        "numberOfBytes": "20"
      },
      "t_array(t_address_payable)dyn_storage": {
        "base": "t_address_payable",
        "encoding": "dynamic_array",
        "label": "address payable[]",
        "numberOfBytes": "32"
      },
      "t_enum(SweepStake_state)232": {
        "encoding": "inplace",
        "label": "enum Sweepstake.SweepStake_state",
        "numberOfBytes": "1"
      },
      "t_uint256": {
        "encoding": "inplace",
        "label": "uint256",
        "numberOfBytes": "32"
      }
    }
  }
}