{
  "address": "0xe798eD2778a5C918c6Faef1C7987b6495029cd4E",
  "abi": [
    {
      "inputs": [
        {
          "internalType": "uint256",
          "name": "_entranceFee",
          "type": "uint256"
        },
        {
          "internalType": "address",
          "name": "_vrfCoordinatorAddress",
          "type": "address"
        },
        {
          "internalType": "uint64",
          "name": "_subscriptionId",
          "type": "uint64"
        },
        {
          "internalType": "bytes32",
          "name": "_keyHash",
          "type": "bytes32"
        },
        {
          "internalType": "uint32",
          "name": "_callbackGasLimit",
          "type": "uint32"
        },
        {
          "internalType": "uint256",
          "name": "_interval",
          "type": "uint256"
        }
      ],
      "stateMutability": "nonpayable",
      "type": "constructor"
    },
    {
      "inputs": [
        {
          "internalType": "address",
          "name": "have",
          "type": "address"
        },
        {
          "internalType": "address",
          "name": "want",
          "type": "address"
        }
      ],
      "name": "OnlyCoordinatorCanFulfill",
      "type": "error"
    },
    {
      "inputs": [
        {
          "internalType": "uint256",
          "name": "currentBalance",
          "type": "uint256"
        },
        {
          "internalType": "uint256",
          "name": "numPlayers",
          "type": "uint256"
        },
        {
          "internalType": "uint256",
          "name": "sweepstakeState",
          "type": "uint256"
        }
      ],
      "name": "SweepStake__upKeepNotNeeded",
      "type": "error"
    },
    {
      "inputs": [],
      "name": "Sweepstake__not_enough_entrance_fee",
      "type": "error"
    },
    {
      "inputs": [],
      "name": "Sweepstake__state__notOpen",
      "type": "error"
    },
    {
      "inputs": [],
      "name": "Sweepstake__transactionFailed",
      "type": "error"
    },
    {
      "anonymous": false,
      "inputs": [
        {
          "indexed": true,
          "internalType": "uint256",
          "name": "requestId",
          "type": "uint256"
        }
      ],
      "name": "SweepStake__requestedSweepstakeWinner",
      "type": "event"
    },
    {
      "anonymous": false,
      "inputs": [
        {
          "indexed": true,
          "internalType": "address",
          "name": "entrant",
          "type": "address"
        }
      ],
      "name": "SweepStake__sweepStatkeEnter",
      "type": "event"
    },
    {
      "anonymous": false,
      "inputs": [
        {
          "indexed": true,
          "internalType": "address",
          "name": "winner",
          "type": "address"
        }
      ],
      "name": "SweepStake__winnerPicked",
      "type": "event"
    },
    {
      "stateMutability": "payable",
      "type": "fallback"
    },
    {
      "inputs": [
        {
          "internalType": "bytes",
          "name": "",
          "type": "bytes"
        }
      ],
      "name": "checkUpkeep",
      "outputs": [
        {
          "internalType": "bool",
          "name": "upkeepNeeded",
          "type": "bool"
        },
        {
          "internalType": "bytes",
          "name": "",
          "type": "bytes"
        }
      ],
      "stateMutability": "view",
      "type": "function"
    },
    {
      "inputs": [],
      "name": "enterSweepstake",
      "outputs": [],
      "stateMutability": "payable",
      "type": "function"
    },
    {
      "inputs": [],
      "name": "getEntranceFee",
      "outputs": [
        {
          "internalType": "uint256",
          "name": "_entranceFee",
          "type": "uint256"
        }
      ],
      "stateMutability": "view",
      "type": "function"
    },
    {
      "inputs": [
        {
          "internalType": "uint256",
          "name": "index",
          "type": "uint256"
        }
      ],
      "name": "getEntrant",
      "outputs": [
        {
          "internalType": "address",
          "name": "_entrantAddress",
          "type": "address"
        }
      ],
      "stateMutability": "view",
      "type": "function"
    },
    {
      "inputs": [],
      "name": "getInterval",
      "outputs": [
        {
          "internalType": "uint256",
          "name": "_interval",
          "type": "uint256"
        }
      ],
      "stateMutability": "view",
      "type": "function"
    },
    {
      "inputs": [],
      "name": "getLatestWinner",
      "outputs": [
        {
          "internalType": "address",
          "name": "_winner",
          "type": "address"
        }
      ],
      "stateMutability": "view",
      "type": "function"
    },
    {
      "inputs": [],
      "name": "getLatestWinnerAmount",
      "outputs": [
        {
          "internalType": "uint256",
          "name": "_amount",
          "type": "uint256"
        }
      ],
      "stateMutability": "view",
      "type": "function"
    },
    {
      "inputs": [],
      "name": "getLatestWinnerTimeStamp",
      "outputs": [
        {
          "internalType": "uint256",
          "name": "_timestamp",
          "type": "uint256"
        }
      ],
      "stateMutability": "view",
      "type": "function"
    },
    {
      "inputs": [],
      "name": "getNumWords",
      "outputs": [
        {
          "internalType": "uint256",
          "name": "_numWords",
          "type": "uint256"
        }
      ],
      "stateMutability": "pure",
      "type": "function"
    },
    {
      "inputs": [],
      "name": "getNumberOfEntrants",
      "outputs": [
        {
          "internalType": "uint256",
          "name": "_noOfEntrants",
          "type": "uint256"
        }
      ],
      "stateMutability": "view",
      "type": "function"
    },
    {
      "inputs": [],
      "name": "getState",
      "outputs": [
        {
          "internalType": "enum Sweepstake.SweepStake_state",
          "name": "_state",
          "type": "uint8"
        }
      ],
      "stateMutability": "view",
      "type": "function"
    },
    {
      "inputs": [
        {
          "internalType": "bytes",
          "name": "",
          "type": "bytes"
        }
      ],
      "name": "performUpkeep",
      "outputs": [],
      "stateMutability": "nonpayable",
      "type": "function"
    },
    {
      "inputs": [
        {
          "internalType": "uint256",
          "name": "requestId",
          "type": "uint256"
        },
        {
          "internalType": "uint256[]",
          "name": "randomWords",
          "type": "uint256[]"
        }
      ],
      "name": "rawFulfillRandomWords",
      "outputs": [],
      "stateMutability": "nonpayable",
      "type": "function"
    },
    {
      "stateMutability": "payable",
      "type": "receive"
    }
  ],
  "transactionHash": "0x56227e01a5941f7090af1561feb9307b0d5a8dfe5e488f597ba904f4cc7dde1c",
  "args": [
    "50000000000000000",
    "0x6168499c0cFfCaCD319c818142124B7A15E857ab",
    "9227",
    "0xd89b2bf150e3b9e13446986e571fb9cab24b13cea0a43ea20a6049a85cc807cc",
    "500000",
    "3"
  ],
  "numDeployments": 5,
  "solcInputHash": "011bcb42d9d1a9b7526230f56ea70b8e",
  "bytecode": "0x6101606040523480156200001257600080fd5b506040516200188a3803806200188a833981810160405281019062000038919062000294565b848073ffffffffffffffffffffffffffffffffffffffff1660808173ffffffffffffffffffffffffffffffffffffffff1681525050508560a081815250508367ffffffffffffffff166101008167ffffffffffffffff16815250508261012081815250508060c081815250506000600160006101000a81548160ff02191690836001811115620000cd57620000cc62000330565b5b02179055508163ffffffff166101408163ffffffff1681525050426003819055508473ffffffffffffffffffffffffffffffffffffffff1660e08173ffffffffffffffffffffffffffffffffffffffff16815250505050505050506200035f565b600080fd5b6000819050919050565b620001488162000133565b81146200015457600080fd5b50565b60008151905062000168816200013d565b92915050565b600073ffffffffffffffffffffffffffffffffffffffff82169050919050565b60006200019b826200016e565b9050919050565b620001ad816200018e565b8114620001b957600080fd5b50565b600081519050620001cd81620001a2565b92915050565b600067ffffffffffffffff82169050919050565b620001f281620001d3565b8114620001fe57600080fd5b50565b6000815190506200021281620001e7565b92915050565b6000819050919050565b6200022d8162000218565b81146200023957600080fd5b50565b6000815190506200024d8162000222565b92915050565b600063ffffffff82169050919050565b6200026e8162000253565b81146200027a57600080fd5b50565b6000815190506200028e8162000263565b92915050565b60008060008060008060c08789031215620002b457620002b36200012e565b5b6000620002c489828a0162000157565b9650506020620002d789828a01620001bc565b9550506040620002ea89828a0162000201565b9450506060620002fd89828a016200023c565b93505060806200031089828a016200027d565b92505060a06200032389828a0162000157565b9150509295509295509295565b7f4e487b7100000000000000000000000000000000000000000000000000000000600052602160045260246000fd5b60805160a05160c05160e0516101005161012051610140516114bb620003cf60003960006105fe015260006105ba015260006105db0152600061057e0152600081816108bf015261095501526000818161034901526106fd01526000818161039201526103e601526114bb6000f3fe6080604052600436106100c65760003560e01c80634585e33b1161007f5780635e105118116100595780635e105118146102605780636e04ff0d1461026a57806391ad27b4146102a8578063c9332954146102d3576100cd565b80634585e33b146101e15780634fdd3b641461020a57806353a2c19a14610235576100cd565b806304763ce0146100cf57806309bc33a71461010c5780630dae9574146101375780631865c57d146101625780631fe543e31461018d57806328a318e0146101b6576100cd565b366100cd57005b005b3480156100db57600080fd5b506100f660048036038101906100f19190610c78565b6102fe565b6040516101039190610ce6565b60405180910390f35b34801561011857600080fd5b50610121610345565b60405161012e9190610d10565b60405180910390f35b34801561014357600080fd5b5061014c61036d565b6040516101599190610d10565b60405180910390f35b34801561016e57600080fd5b50610177610379565b6040516101849190610da2565b60405180910390f35b34801561019957600080fd5b506101b460048036038101906101af9190610f16565b610390565b005b3480156101c257600080fd5b506101cb610450565b6040516101d89190610d10565b60405180910390f35b3480156101ed57600080fd5b5061020860048036038101906102039190610fcd565b61045a565b005b34801561021657600080fd5b5061021f6106c6565b60405161022c9190610ce6565b60405180910390f35b34801561024157600080fd5b5061024a6106ee565b6040516102579190610d10565b60405180910390f35b6102686106fb565b005b34801561027657600080fd5b50610291600480360381019061028c91906110cf565b61086a565b60405161029f9291906111bb565b60405180910390f35b3480156102b457600080fd5b506102bd610951565b6040516102ca9190610d10565b60405180910390f35b3480156102df57600080fd5b506102e8610979565b6040516102f59190610d10565b60405180910390f35b6000808281548110610313576103126111eb565b5b9060005260206000200160009054906101000a900473ffffffffffffffffffffffffffffffffffffffff169050919050565b60007f0000000000000000000000000000000000000000000000000000000000000000905090565b60008080549050905090565b6000600160009054906101000a900460ff16905090565b7f000000000000000000000000000000000000000000000000000000000000000073ffffffffffffffffffffffffffffffffffffffff163373ffffffffffffffffffffffffffffffffffffffff161461044257337f00000000000000000000000000000000000000000000000000000000000000006040517f1cf993f400000000000000000000000000000000000000000000000000000000815260040161043992919061121a565b60405180910390fd5b61044c8282610983565b5050565b6000600354905090565b60006104746040518060200160405280600081525061086a565b509050806104e35747600080549050600160009054906101000a900460ff1660018111156104a5576104a4610d2b565b5b6040517ffff05ca20000000000000000000000000000000000000000000000000000000081526004016104da93929190611243565b60405180910390fd5b600060018111156104f7576104f6610d2b565b5b600160009054906101000a900460ff16600181111561051957610518610d2b565b5b14610550576040517ff3a2a6c400000000000000000000000000000000000000000000000000000000815260040160405180910390fd5b60018060006101000a81548160ff0219169083600181111561057557610574610d2b565b5b021790555060007f000000000000000000000000000000000000000000000000000000000000000073ffffffffffffffffffffffffffffffffffffffff16635d3b1d307f00000000000000000000000000000000000000000000000000000000000000007f000000000000000000000000000000000000000000000000000000000000000060037f000000000000000000000000000000000000000000000000000000000000000060016040518663ffffffff1660e01b815260040161063f95949392919061132d565b602060405180830381600087803b15801561065957600080fd5b505af115801561066d573d6000803e3d6000fd5b505050506040513d601f19601f820116820180604052508101906106919190611395565b9050807fe5b1701f4146d8a6997b37a0bfcc2e7d05b73a784aaea25c5d19f07d58f743e660405160405180910390a250505050565b600060018054906101000a900473ffffffffffffffffffffffffffffffffffffffff16905090565b6000600161ffff16905090565b7f0000000000000000000000000000000000000000000000000000000000000000341015610755576040517f8395fdbe00000000000000000000000000000000000000000000000000000000815260040160405180910390fd5b6000600181111561076957610768610d2b565b5b600160009054906101000a900460ff16600181111561078b5761078a610d2b565b5b146107c2576040517ff3a2a6c400000000000000000000000000000000000000000000000000000000815260040160405180910390fd5b6000339080600181540180825580915050600190039060005260206000200160009091909190916101000a81548173ffffffffffffffffffffffffffffffffffffffff021916908373ffffffffffffffffffffffffffffffffffffffff1602179055503373ffffffffffffffffffffffffffffffffffffffff167f84ba1970ba3572c1b45f55ed2d3d397df8454e7fd663c3b3eb07f10dd500d6d360405160405180910390a2565b60006060600080600181111561088357610882610d2b565b5b600160009054906101000a900460ff1660018111156108a5576108a4610d2b565b5b1490506000806000805490501190506000804711905060007f0000000000000000000000000000000000000000000000000000000000000000600354426108ec91906113f1565b1190508380156108f95750825b80156109025750815b801561090b5750805b9550856040518060400160405280600381526020017f30783000000000000000000000000000000000000000000000000000000000008152509550955050505050915091565b60007f0000000000000000000000000000000000000000000000000000000000000000905090565b6000600254905090565b600080805490508260008151811061099e5761099d6111eb565b5b60200260200101516109b09190611454565b905060008082815481106109c7576109c66111eb565b5b9060005260206000200160009054906101000a900473ffffffffffffffffffffffffffffffffffffffff169050806001806101000a81548173ffffffffffffffffffffffffffffffffffffffff021916908373ffffffffffffffffffffffffffffffffffffffff160217905550600067ffffffffffffffff811115610a4f57610a4e610dd3565b5b604051908082528060200260200182016040528015610a7d5781602001602082028036833780820191505090505b5060009080519060200190610a93929190610b87565b506000600160006101000a81548160ff02191690836001811115610aba57610ab9610d2b565b5b0217905550476002819055504260038190555060008173ffffffffffffffffffffffffffffffffffffffff166108fc479081150290604051600060405180830381858888f19350505050905080610b3d576040517f278512dd00000000000000000000000000000000000000000000000000000000815260040160405180910390fd5b8173ffffffffffffffffffffffffffffffffffffffff167f74ad9d1fbddec9367274c01a0e99b01d3e96a996bf407ca2d459e6d490d4112460405160405180910390a25050505050565b828054828255906000526020600020908101928215610c00579160200282015b82811115610bff5782518260006101000a81548173ffffffffffffffffffffffffffffffffffffffff021916908373ffffffffffffffffffffffffffffffffffffffff16021790555091602001919060010190610ba7565b5b509050610c0d9190610c11565b5090565b5b80821115610c2a576000816000905550600101610c12565b5090565b6000604051905090565b600080fd5b600080fd5b6000819050919050565b610c5581610c42565b8114610c6057600080fd5b50565b600081359050610c7281610c4c565b92915050565b600060208284031215610c8e57610c8d610c38565b5b6000610c9c84828501610c63565b91505092915050565b600073ffffffffffffffffffffffffffffffffffffffff82169050919050565b6000610cd082610ca5565b9050919050565b610ce081610cc5565b82525050565b6000602082019050610cfb6000830184610cd7565b92915050565b610d0a81610c42565b82525050565b6000602082019050610d256000830184610d01565b92915050565b7f4e487b7100000000000000000000000000000000000000000000000000000000600052602160045260246000fd5b60028110610d6b57610d6a610d2b565b5b50565b6000819050610d7c82610d5a565b919050565b6000610d8c82610d6e565b9050919050565b610d9c81610d81565b82525050565b6000602082019050610db76000830184610d93565b92915050565b600080fd5b6000601f19601f8301169050919050565b7f4e487b7100000000000000000000000000000000000000000000000000000000600052604160045260246000fd5b610e0b82610dc2565b810181811067ffffffffffffffff82111715610e2a57610e29610dd3565b5b80604052505050565b6000610e3d610c2e565b9050610e498282610e02565b919050565b600067ffffffffffffffff821115610e6957610e68610dd3565b5b602082029050602081019050919050565b600080fd5b6000610e92610e8d84610e4e565b610e33565b90508083825260208201905060208402830185811115610eb557610eb4610e7a565b5b835b81811015610ede5780610eca8882610c63565b845260208401935050602081019050610eb7565b5050509392505050565b600082601f830112610efd57610efc610dbd565b5b8135610f0d848260208601610e7f565b91505092915050565b60008060408385031215610f2d57610f2c610c38565b5b6000610f3b85828601610c63565b925050602083013567ffffffffffffffff811115610f5c57610f5b610c3d565b5b610f6885828601610ee8565b9150509250929050565b600080fd5b60008083601f840112610f8d57610f8c610dbd565b5b8235905067ffffffffffffffff811115610faa57610fa9610f72565b5b602083019150836001820283011115610fc657610fc5610e7a565b5b9250929050565b60008060208385031215610fe457610fe3610c38565b5b600083013567ffffffffffffffff81111561100257611001610c3d565b5b61100e85828601610f77565b92509250509250929050565b600080fd5b600067ffffffffffffffff82111561103a57611039610dd3565b5b61104382610dc2565b9050602081019050919050565b82818337600083830152505050565b600061107261106d8461101f565b610e33565b90508281526020810184848401111561108e5761108d61101a565b5b611099848285611050565b509392505050565b600082601f8301126110b6576110b5610dbd565b5b81356110c684826020860161105f565b91505092915050565b6000602082840312156110e5576110e4610c38565b5b600082013567ffffffffffffffff81111561110357611102610c3d565b5b61110f848285016110a1565b91505092915050565b60008115159050919050565b61112d81611118565b82525050565b600081519050919050565b600082825260208201905092915050565b60005b8381101561116d578082015181840152602081019050611152565b8381111561117c576000848401525b50505050565b600061118d82611133565b611197818561113e565b93506111a781856020860161114f565b6111b081610dc2565b840191505092915050565b60006040820190506111d06000830185611124565b81810360208301526111e28184611182565b90509392505050565b7f4e487b7100000000000000000000000000000000000000000000000000000000600052603260045260246000fd5b600060408201905061122f6000830185610cd7565b61123c6020830184610cd7565b9392505050565b60006060820190506112586000830186610d01565b6112656020830185610d01565b6112726040830184610d01565b949350505050565b6000819050919050565b61128d8161127a565b82525050565b600067ffffffffffffffff82169050919050565b6112b081611293565b82525050565b600061ffff82169050919050565b6112cd816112b6565b82525050565b600063ffffffff82169050919050565b6112ec816112d3565b82525050565b6000819050919050565b600061131761131261130d846112b6565b6112f2565b6112d3565b9050919050565b611327816112fc565b82525050565b600060a0820190506113426000830188611284565b61134f60208301876112a7565b61135c60408301866112c4565b61136960608301856112e3565b611376608083018461131e565b9695505050505050565b60008151905061138f81610c4c565b92915050565b6000602082840312156113ab576113aa610c38565b5b60006113b984828501611380565b91505092915050565b7f4e487b7100000000000000000000000000000000000000000000000000000000600052601160045260246000fd5b60006113fc82610c42565b915061140783610c42565b92508282101561141a576114196113c2565b5b828203905092915050565b7f4e487b7100000000000000000000000000000000000000000000000000000000600052601260045260246000fd5b600061145f82610c42565b915061146a83610c42565b92508261147a57611479611425565b5b82820690509291505056fea2646970667358221220188026dbe8c9ace3896adca9171707acb854b55bf293ef049801470f650a622d64736f6c63430008090033",
  "devdoc": {
    "kind": "dev",
    "methods": {},
    "version": 1
  },
  "userdoc": {
    "kind": "user",
    "methods": {},
    "version": 1
  },
  "storageLayout": {
    "storage": [
      {
        "astId": 237,
        "contract": "contracts/Sweepstake.sol:Sweepstake",
        "label": "s_entrants",
        "offset": 0,
        "slot": "0",
        "type": "t_array(t_address_payable)dyn_storage"
      },
      {
        "astId": 240,
        "contract": "contracts/Sweepstake.sol:Sweepstake",
        "label": "s_state",
        "offset": 0,
        "slot": "1",
        "type": "t_enum(SweepStake_state)230"
      },
      {
        "astId": 257,
        "contract": "contracts/Sweepstake.sol:Sweepstake",
        "label": "s_latestWinner",
        "offset": 1,
        "slot": "1",
        "type": "t_address"
      },
      {
        "astId": 259,
        "contract": "contracts/Sweepstake.sol:Sweepstake",
        "label": "s_latestWinnerAmount",
        "offset": 0,
        "slot": "2",
        "type": "t_uint256"
      },
      {
        "astId": 261,
        "contract": "contracts/Sweepstake.sol:Sweepstake",
        "label": "s_latestWinnerTimestamp",
        "offset": 0,
        "slot": "3",
        "type": "t_uint256"
      }
    ],
    "types": {
      "t_address": {
        "encoding": "inplace",
        "label": "address",
        "numberOfBytes": "20"
      },
      "t_address_payable": {
        "encoding": "inplace",
        "label": "address payable",
        "numberOfBytes": "20"
      },
      "t_array(t_address_payable)dyn_storage": {
        "base": "t_address_payable",
        "encoding": "dynamic_array",
        "label": "address payable[]",
        "numberOfBytes": "32"
      },
      "t_enum(SweepStake_state)230": {
        "encoding": "inplace",
        "label": "enum Sweepstake.SweepStake_state",
        "numberOfBytes": "1"
      },
      "t_uint256": {
        "encoding": "inplace",
        "label": "uint256",
        "numberOfBytes": "32"
      }
    }
  }
}